{
  "contractName": "GoofyToken",
  "abi": [
    {
      "inputs": [],
      "payable": false,
      "stateMutability": "nonpayable",
      "type": "constructor"
    },
    {
      "anonymous": false,
      "inputs": [
        {
          "indexed": false,
          "internalType": "address",
          "name": "_seller",
          "type": "address"
        },
        {
          "indexed": false,
          "internalType": "uint256",
          "name": "_amount",
          "type": "uint256"
        }
      ],
      "name": "sell",
      "type": "event"
    },
    {
      "constant": true,
      "inputs": [],
      "name": "tokenName",
      "outputs": [
        {
          "internalType": "string",
          "name": "",
          "type": "string"
        }
      ],
      "payable": false,
      "stateMutability": "view",
      "type": "function"
    },
    {
      "constant": true,
      "inputs": [],
      "name": "tokenPrice",
      "outputs": [
        {
          "internalType": "uint256",
          "name": "",
          "type": "uint256"
        }
      ],
      "payable": false,
      "stateMutability": "view",
      "type": "function"
    },
    {
      "constant": true,
      "inputs": [],
      "name": "totalSupply",
      "outputs": [
        {
          "internalType": "uint256",
          "name": "",
          "type": "uint256"
        }
      ],
      "payable": false,
      "stateMutability": "view",
      "type": "function"
    }
  ],
  "bytecode": "0x608060405234801561001057600080fd5b506040518060400160405280600b81526020017f476f6f667920546f6b656e0000000000000000000000000000000000000000008152506001908051906020019061005c92919061007a565b5067016345785d8a00006002819055506103e860038190555061011f565b828054600181600116156101000203166002900490600052602060002090601f016020900481019282601f106100bb57805160ff19168380011785556100e9565b828001600101855582156100e9579182015b828111156100e85782518255916020019190600101906100cd565b5b5090506100f691906100fa565b5090565b61011c91905b80821115610118576000816000905550600101610100565b5090565b90565b6101e48061012e6000396000f3fe608060405234801561001057600080fd5b50600436106100415760003560e01c806318160ddd146100465780636c02a931146100645780637ff9b596146100e7575b600080fd5b61004e610105565b6040518082815260200191505060405180910390f35b61006c61010b565b6040518080602001828103825283818151815260200191508051906020019080838360005b838110156100ac578082015181840152602081019050610091565b50505050905090810190601f1680156100d95780820380516001836020036101000a031916815260200191505b509250505060405180910390f35b6100ef6101a9565b6040518082815260200191505060405180910390f35b60035481565b60018054600181600116156101000203166002900480601f0160208091040260200160405190810160405280929190818152602001828054600181600116156101000203166002900480156101a15780601f10610176576101008083540402835291602001916101a1565b820191906000526020600020905b81548152906001019060200180831161018457829003601f168201915b505050505081565b6002548156fea265627a7a723158202a17b539b43b65fcbeda4f0060c21de6aae774902ee77d8774a9977c22dbeec764736f6c63430005100032",
  "source": "pragma solidity >0.5.2;\n\ncontract GoofyToken {\n    address admin;\n    string public tokenName;\n    uint256 public tokenPrice;\n    uint256 public totalSupply;\n\n    // constructor to initialize sale\n    constructor() public {\n        tokenName = 'Goofy Token';\n        tokenPrice = 0.1 ether;\n        totalSupply = 1000;\n    }\n\n    // events\n    event sell(address _seller, uint256 _amount);\n}\n",
  "sourcePath": "/Users/K.Z./Desktop/projects/goofy-coin/src/contracts/GoofyToken.sol",
  "compiler": {
    "name": "solc",
    "version": "0.5.16+commit.9c3226ce.Emscripten.clang"
  },
  "schemaVersion": "3.4.0",
  "updatedAt": "2021-05-08T19:29:09.773Z",
  "networkType": "ethereum",
  "devdoc": {
    "methods": {}
  },
  "userdoc": {
    "methods": {}
  }
}