{
  "contractName": "GoofyTokenSale",
  "abi": [
    {
      "inputs": [],
      "payable": false,
      "stateMutability": "nonpayable",
      "type": "constructor"
    },
    {
      "anonymous": false,
      "inputs": [
        {
          "indexed": false,
          "internalType": "address",
          "name": "_seller",
          "type": "address"
        },
        {
          "indexed": false,
          "internalType": "uint256",
          "name": "_amount",
          "type": "uint256"
        }
      ],
      "name": "sell",
      "type": "event"
    },
    {
      "constant": true,
      "inputs": [],
      "name": "tokenPrice",
      "outputs": [
        {
          "internalType": "uint256",
          "name": "",
          "type": "uint256"
        }
      ],
      "payable": false,
      "stateMutability": "view",
      "type": "function"
    },
    {
      "constant": true,
      "inputs": [],
      "name": "tokenSupply",
      "outputs": [
        {
          "internalType": "uint256",
          "name": "",
          "type": "uint256"
        }
      ],
      "payable": false,
      "stateMutability": "view",
      "type": "function"
    }
  ],
  "bytecode": "0x608060405234801561001057600080fd5b5067016345785d8a00006001819055506103e860028190555060b0806100376000396000f3fe6080604052348015600f57600080fd5b506004361060325760003560e01c80637824407f1460375780637ff9b596146053575b600080fd5b603d606f565b6040518082815260200191505060405180910390f35b60596075565b6040518082815260200191505060405180910390f35b60025481565b6001548156fea265627a7a723158209185a972e2b1d92780e06e01fc3927e275fbebca7ce07a32fbede0271053425d64736f6c63430005100032",
  "source": "pragma solidity >0.5.2;\n\ncontract GoofyTokenSale {\n    address admin;\n    uint256 public tokenPrice;\n    uint256 public tokenSupply;\n\n    // constructor to initialize sale\n    constructor() public {\n        tokenPrice = 0.1 ether;\n        tokenSupply = 1000;\n    }\n\n    // events\n    event sell(address _seller, uint256 _amount);\n}\n",
  "sourcePath": "/Users/K.Z./Desktop/projects/goofy-coin/src/contracts/GoofyToken.sol",
  "compiler": {
    "name": "solc",
    "version": "0.5.16+commit.9c3226ce.Emscripten.clang"
  },
  "schemaVersion": "3.4.0",
  "updatedAt": "2021-05-08T19:05:24.285Z",
  "networkType": "ethereum",
  "devdoc": {
    "methods": {}
  },
  "userdoc": {
    "methods": {}
  }
}